{
  "contractName": "Certification",
  "abi": [
    {
      "constant": true,
      "inputs": [
        {
          "name": "",
          "type": "uint256"
        }
      ],
      "name": "careers",
      "outputs": [
        {
          "name": "uId",
          "type": "string"
        },
        {
          "name": "rates",
          "type": "uint256"
        }
      ],
      "payable": false,
      "stateMutability": "view",
      "type": "function"
    },
    {
      "inputs": [],
      "payable": false,
      "stateMutability": "nonpayable",
      "type": "constructor"
    },
    {
      "constant": false,
      "inputs": [
        {
          "name": "uId",
          "type": "string"
        },
        {
          "name": "rates",
          "type": "uint256"
        }
      ],
      "name": "makeCertification",
      "outputs": [
        {
          "name": "",
          "type": "string"
        }
      ],
      "payable": false,
      "stateMutability": "nonpayable",
      "type": "function"
    },
    {
      "constant": false,
      "inputs": [],
      "name": "getCareers",
      "outputs": [
        {
          "name": "",
          "type": "uint256"
        }
      ],
      "payable": false,
      "stateMutability": "nonpayable",
      "type": "function"
    }
  ],
  "bytecode": "0x608060405234801561001057600080fd5b506105fb806100206000396000f300608060405260043610610057576000357c0100000000000000000000000000000000000000000000000000000000900463ffffffff1680632ac56a6c1461005c57806339a18a671461009a5780635197ebb3146100c5575b600080fd5b34801561006857600080fd5b50610083600480360361007e91908101906103da565b610102565b6040516100919291906104a0565b60405180910390f35b3480156100a657600080fd5b506100af6101cd565b6040516100bc91906104d0565b60405180910390f35b3480156100d157600080fd5b506100ec60048036036100e79190810190610386565b6101da565b6040516100f9919061047e565b60405180910390f35b60018181548110151561011157fe5b9060005260206000209060020201600091509050806000018054600181600116156101000203166002900480601f0160208091040260200160405190810160405280929190818152602001828054600181600116156101000203166002900480156101bd5780601f10610192576101008083540402835291602001916101bd565b820191906000526020600020905b8154815290600101906020018083116101a057829003601f168201915b5050505050908060010154905082565b6000600180549050905090565b60606101e461025d565b6040805190810160405280858152602001848152509050600181908060018154018082558091505090600182039060005260206000209060020201600090919290919091506000820151816000019080519060200190610245929190610277565b50602082015181600101555050508391505092915050565b604080519081016040528060608152602001600081525090565b828054600181600116156101000203166002900490600052602060002090601f016020900481019282601f106102b857805160ff19168380011785556102e6565b828001600101855582156102e6579182015b828111156102e55782518255916020019190600101906102ca565b5b5090506102f391906102f7565b5090565b61031991905b808211156103155760008160009055506001016102fd565b5090565b90565b600082601f830112151561032f57600080fd5b813561034261033d82610518565b6104eb565b9150808252602083016020830185838301111561035e57600080fd5b61036983828461056e565b50505092915050565b600061037e8235610564565b905092915050565b6000806040838503121561039957600080fd5b600083013567ffffffffffffffff8111156103b357600080fd5b6103bf8582860161031c565b92505060206103d085828601610372565b9150509250929050565b6000602082840312156103ec57600080fd5b60006103fa84828501610372565b91505092915050565b600061040e8261054f565b80845261042281602086016020860161057d565b61042b816105b0565b602085010191505092915050565b600061044482610544565b80845261045881602086016020860161057d565b610461816105b0565b602085010191505092915050565b6104788161055a565b82525050565b600060208201905081810360008301526104988184610403565b905092915050565b600060408201905081810360008301526104ba8185610439565b90506104c9602083018461046f565b9392505050565b60006020820190506104e5600083018461046f565b92915050565b6000604051905081810181811067ffffffffffffffff8211171561050e57600080fd5b8060405250919050565b600067ffffffffffffffff82111561052f57600080fd5b601f19601f8301169050602081019050919050565b600081519050919050565b600081519050919050565b6000819050919050565b6000819050919050565b82818337600083830152505050565b60005b8381101561059b578082015181840152602081019050610580565b838111156105aa576000848401525b50505050565b6000601f19601f83011690509190505600a265627a7a723058200a96eebe5dea32e4a4bb31be2c129354ef4658a1bd3a59cc0c1fa5dd04fc6d7f6c6578706572696d656e74616cf50037",
  "source": "pragma solidity ^0.4.18;\npragma experimental ABIEncoderV2;\n\ncontract Certification {\n    address companyAddr;\n\n    //event OnCreateRoom(address indexed _from, uint256 _value);\n\n    struct Career {\n        string uId;\n        uint256 rates;\n    }\n    \n    Career[] public careers;\n\n    constructor () public {\n    }\n\n    function makeCertification(string uId, uint rates) public returns(string){\n        Career memory crr = Career(uId, rates);\n        careers.push(crr);\n\n        return uId;\n    }\n    function getCareers() public returns (uint) {\n        return careers.length;\n    }\n    \n    //function getRates() public view returns (uint) {\n        //return rates;\n    //}\n}\n",
  "sourcePath": "/Users/soyoung/tcl_react/contracts/Certification.sol",
  "compiler": {
    "name": "solc",
    "version": "0.4.24+commit.e67f0147.Emscripten.clang"
  },
  "schemaVersion": "2.0.0",
  "updatedAt": "2018-06-11T12:09:47.117Z"
}